:0400000007EF00F016
:100008004582DDED05F05EEF06F02D50800B366E73
:100018002D502D24386E2CAE14EF00F016EF00F0A2
:1000280017EF00F038803850D8B41DEF00F01FEFFC
:1000380000F034EF00F03828D8A425EF00F027EFBF
:1000480000F02FEF00F0000E2A6E000E2B6E000E4F
:100058002C6E000E2D6E2C8E000E2D6E3CEF00F0D7
:10006800000E2A6E000E2B6E000E2C6E000E2D6EEA
:100078003150800B376E36503718D8B446EF00F041
:1000880048EF00F049EF00F0368C31503124376EDC
:1000980030AE51EF00F053EF00F054EF00F037802E
:1000A8003750D8B45AEF00F05CEF00F071EF00F071
:1000B8003728D8A462EF00F064EF00F06CEF00F08E
:1000C800000E2E6E000E2F6E000E306E000E316E7A
:1000D800308E000E316E79EF00F0000E2E6E000E9D
:1000E8002F6E000E306E000E316E3850375CD8B06F
:1000F80080EF00F082EF00F0A9EF00F036AC87EF58
:1001080000F089EF00F08BEF00F0800E361A38C04F
:1001180039F037C038F039C037F02AC039F02EC06E
:100128002AF039C02EF02BC039F02FC02BF039C07F
:100138002FF02CC039F030C02CF039C030F02DC071
:1001480039F031C02DF039C031F0000E396E385019
:1001580037C032F0336A325E000E335A33BEBEEF18
:1001680000F0335009E11A0E325CD8A0BEEF00F05F
:10017800C0EF00F0F7EF00F02A502B102C102D10D4
:10018800D8A4C9EF00F0CCEF00F0010ECDEF00F0DD
:10019800000E396E000E2A6E000E2B6E000E2C6EAD
:1001A800000E2D6E37C038F000EF01F039A0DFEFF8
:1001B80000F0E1EF00F0E7EF00F0D89039300109E6
:1001C800396EE9EF00F0D89039322AA0EEEF00F04E
:1001D800F0EF00F0F1EF00F0398E2D342D322C3293
:1001E8002B322A32382A3750385CD8A0FEEF00F07C
:1001F80000EF01F0DAEF00F036BC05EF01F007EF91
:1002080001F047EF01F03850D8A40DEF01F00FEFDF
:1002180001F019EF01F0000E2A6E000E2B6E000E91
:100228002C6E000E2D6E68EF02F02E502A262F50ED
:100238002B2230502C2231502D222DA026EF01F0F8
:1002480028EF01F0D4EF01F039A02DEF01F02FEFE6
:1002580001F035EF01F0D89039300109396E37EFE8
:1002680001F0D89039322AA03CEF01F03EEF01F0BE
:100278003FEF01F0398E2D342D322C322B322A32B9
:10028800382AD4EF01F02E502A5C2F502B583050CA
:100298002C582D50800A326E3150800A3258D8B00E
:1002A80058EF01F05AEF01F085EF01F02A502E5C6B
:1002B800326E2B502F58336E2C503058346E2D50D0
:1002C8003158356EFF0E32242A6EFF0E33202B6E06
:1002D800FF0E34202C6EFF0E35202D6E800E361A40
:1002E800396C3950D8A47BEF01F07DEF01F08DEF28
:1002F80001F0010E2A26000E2B222C222D228DEF32
:1003080001F02E502A5E2F502B5A30502C5A315063
:100318002D5A2A502B102C102D10D8A496EF01F02E
:1003280098EF01F0CDEF01F03950D8A49EEF01F01D
:10033800A0EF01F0CDEF01F0000E2A6E000E2B6E3B
:10034800000E2C6E000E2D6E68EF02F0D8902A3643
:100358002B362C362D3639AEB4EF01F0B6EF01F05E
:10036800B7EF01F02A8039A0BCEF01F0BEEF01F031
:10037800C2EF01F0D8803936C4EF01F0D890393691
:100388003850D8B4CAEF01F0CCEF01F0CDEF01F04E
:1003980038062CAED2EF01F0D4EF01F0AAEF01F04D
:1003A800000E376E39AEDBEF01F0DDEF01F0F5EF4F
:1003B80001F039C032F07F0E3216D8B4E6EF01F002
:1003C800E8EF01F0ECEF01F0010E376EF5EF01F008
:1003D8002AA0F1EF01F0F3EF01F0F5EF01F0E8EFFB
:1003E80001F03750D8B4FBEF01F0FDEF01F028EF32
:1003F80002F0010E2A26000E2B222C222D222DA0DF
:1004080008EF02F00AEF02F028EF02F02AC032F0FB
:100418002BC033F02CC034F02DC035F035343532D4
:1004280034323332323232C02AF033C02BF034C087
:100438002CF035C02DF03828D8B425EF02F027EF7E
:1004480002F028EF02F0382A3828D8B42EEF02F04C
:1004580030EF02F038EF02F03850D8A436EF02F04F
:1004680038EF02F04AEF02F0000E2A6E000E2B6EF3
:10047800000E2C6E000E2D6E3850D8A446EF02F0F8
:1004880048EF02F04AEF02F0000E366E38A04FEF48
:1004980002F051EF02F054EF02F02C8E55EF02F00B
:1004A8002C9ED89038302D6E36AE5DEF02F05FEF9F
:1004B80002F060EF02F02D8E2AC02AF02BC02BF03C
:1004C8002CC02CF02DC02DF012001450800B216E82
:1004D80014501424286E13AE74EF02F076EF02F075
:1004E80077EF02F028802850D8B47DEF02F07FEF34
:1004F80002F094EF02F02828D8A485EF02F087EFE5
:1005080002F08FEF02F0000E116E000E126E000E58
:10051800136E000E146E138E000E146E9CEF02F014
:10052800000E116E000E126E000E136E000E146E89
:100538001850800B211A18501824296E17AEA7EFEF
:1005480002F0A9EF02F0AAEF02F029802950D8B4EE
:10055800B0EF02F0B2EF02F0C7EF02F02928D8A4FA
:10056800B8EF02F0BAEF02F0C2EF02F0000E156E1B
:10057800000E166E000E176E000E186E178E000E07
:10058800186ECFEF02F0000E156E000E166E000EFC
:10059800176E000E186E1550161017101810D8A4E4
:1005A800D8EF02F0DAEF02F0F2EF02F0000E116E6F
:1005B800000E126E000E136E000E146E800E1312D3
:1005C8007F0E14122150141211C011F012C012F033
:1005D80013C013F014C014F035EF04F02850D8A459
:1005E800F8EF02F0FAEF02F004EF03F0000E116EDC
:1005F800000E126E000E136E000E146E35EF04F02E
:10060800295028C019F01A6A195E000E1A5A7F0E6E
:100618001924226E000E1A20236E11C01DF012C07C
:100628001EF013C01FF014C020F0000E116E000E53
:10063800126E000E136E000E146E000E246E000E65
:10064800256E000E266E000E276E000E296E65EFD1
:1006580003F02950D8B433EF03F035EF03F04CEF33
:1006680003F0D8901D361E361F362036D890113626
:1006780012361336143627AE44EF03F046EF03F074
:1006880047EF03F01180D8902436253626362736D2
:1006980015501D5C16501E5817501F5818502058DA
:1006A800D8A059EF03F05BEF03F064EF03F0278C59
:1006B80015501D5E16501E5A17501F5A1850205AB2
:1006C800292A190E29646BEF03F06DEF03F02DEF63
:1006D80003F01D501E101F102010D8B476EF03F041
:1006E80078EF03F090EF03F0248090EF03F0D890B8
:1006F800113612361336143627AE85EF03F087EF1E
:1007080003F088EF03F01180D8902436253626367A
:1007180027362206D8A0230613AE95EF03F097EFED
:1007280003F07BEF03F0000E296E27AE9EEF03F077
:10073800A0EF03F0C4EF03F0FF0E2414196EFF0EB0
:1007480025141A6EFF0E26141B6E7F0E27141C6EBE
:1007580019501A101B101C10D8B4B5EF03F0B7EFDE
:1007680003F0BBEF03F0010E296EC4EF03F011A0F4
:10077800C0EF03F0C2EF03F0C4EF03F0B7EF03F0EC
:100788002950D8B4CAEF03F0CCEF03F0F0EF03F030
:10079800010E1126000E12221322142214A0D7EFE4
:1007A80003F0D9EF03F0F0EF03F011C019F012C015
:1007B8001AF013C01BF014C01CF01C341C321B327E
:1007C8001A32193219C011F01AC012F01BC013F0F6
:1007D8001CC014F0224A232A23BEFBEF03F0235047
:1007E80008E12228D8A0FBEF03F0FDEF03F008EFA3
:1007F80004F0000E236E2268000E116E000E126EB9
:10080800000E136E000E146E23BE15EF04F0235075
:1008180006E12204D8B013EF04F015EF04F023EF3B
:1008280004F0000E236E000E226E000E116E000EF4
:10083800126E000E136E000E146E000E216E22C092
:1008480028F028A02AEF04F02CEF04F02FEF04F092
:10085800138E30EF04F0139ED8902830146EE6EF14
:1008680002F012000B6E0B50D8B43DEF04F03FEFCE
:1008780004F061EF04F006BE46EF04F044EF04F024
:1008880061EF04F003C007F004C008F005C009F0E8
:1008980006C00AF0071E081E091E0A1E072A000EB7
:1008A800082209220A2207C00DF008C00EF009C06C
:1008B8000FF00AC010F069EF04F003C00DF004C097
:1008C8000EF005C00FF006C010F00350041005101C
:1008D8000610D8A472EF04F074EF04F07EEF04F071
:1008E800000E036E000E046E000E056E000E066EFE
:1008F8000FEF05F0960E0C6E88EF04F00C2AD890D6
:1009080010320F320E320D32000E0D14076E000E2B
:100918000E14086E000E0F14096EFE0E10140A6EE7
:100928000750081009100A10D8A49DEF04F09FEF93
:1009380004F082EF04F0ADEF04F00C2A010E0D264E
:10094800000E0E220F221022D89010320F320E32D3
:100958000D32000E0D14076E000E0E14086E000EF8
:100968000F14096EFF0E10140A6E075008100910B4
:100978000A10D8A4C2EF04F0C4EF04F0A1EF04F009
:10098800CCEF04F00C06D8900D360E360F36103624
:100998000FBED1EF04F0D3EF04F0DBEF04F0020E4A
:1009A8000C60D9EF04F0DBEF04F0C6EF04F00CB0F4
:1009B800E0EF04F0E2EF04F0E3EF04F00F9ED890CC
:1009C8000C320CC007F0086A096A0A6A07C00AF004
:1009D800096A086A076A07500D1208500E12095072
:1009E8000F120A5010120B50D8B4FDEF04F0FFEFAD
:1009F80004F007EF05F006BE06EF05F004EF05F07A
:100A080007EF05F0108E0DC003F00EC004F00FC004
:100A180005F010C006F01200053406340C6E0C50B8
:100A2800D8A419EF05F01BEF05F025EF05F0000E2F
:100A3800036E000E046E000E056E000E066E92EF39
:100A480005F003C007F004C008F005C009F006C0AF
:100A58000AF0200E35EF05F0D8900A320932083234
:100A68000732E82E30EF05F007500B6E058EFF0EAB
:100A78000316FF0E0416FF0E0516000E0616960E38
:100A88000C5E0CBE4CEF05F04AEF05F062EF05F086
:100A98000C50800A970FD8B054EF05F056EF05F0C8
:100AA80058EF05F01BEF05F0D890063205320432F6
:100AB80003320C3E58EF05F07AEF05F01F0E0C6478
:100AC80068EF05F06AEF05F072EF05F01BEF05F02F
:100AD800D89003360436053606360C060C50D8A4D2
:100AE80078EF05F07AEF05F06CEF05F00B50D8B40D
:100AF80080EF05F082EF05F08AEF05F0061E051E6F
:100B0800041E036C000E04220522062203C003F013
:100B180004C004F005C005F006C006F01200949C5D
:100B2800948E3AC003F03BC004F03CC005F03DC0D1
:100B380006F0010E36EC04F003C015F004C016F000
:100B480005C017F006C018F0000E116E240E126EC4
:100B5800F40E136E470E146E69EC02F011C02AF001
:100B680012C02BF013C02CF014C02DF0000E2E6E06
:100B7800000E2F6E800E306EBF0E316E09EC00F045
:100B88002AC03EF02BC03FF02CC040F02DC041F0F1
:100B98003EC003F03FC004F040C005F041C006F07D
:100BA80010EC05F00350AF6E200EAC6E900EAB6EDD
:100BB80012000600D9CF01F0DACF02F09EAAE7EFC3
:100BC80005F0E9EF05F0FFEF05F0600E4224D96E5D
:100BD800000E4320DA6EAECFDFFF424A432AABA2B3
:100BE800F8EF05F0FAEF05F0FDEF05F0AB9800F02F
:100BF800AB88010E446E02C0DAFF01C0D9FF4592EE
:100C08001100000E066E000E056E1EEF06F0000EB7
:100C1800086E000E076E074A082A085009E1510EAF
:100C2800075CD8A01AEF06F01CEF06F00FEF06F0ED
:100C3800054A062A0550035C06500458D8B027EF29
:100C480006F029EF06F00BEF06F01200000E956E85
:100C580094929490000E436E000E426E720ED36E04
:100C6800F28EF28C9D8A000E046E640E036E05EC03
:100C780006F0800E3A6E250E3B6E000E3C6E000E9E
:100C88003D6E93EC05F04BEC06F007EF00F0838027
:100C98008382030E046EE80E036E05EC06F0839063
:100CA8008392030E046EE80E036E05EC06F04BEF1C
:100CB80006F0120000EE60F0A00EEE6AE806FDE114
:100CC800446A436A426A45904592000EF86E0001F4
:040CD8002AEF06F009
:107E86000041542B53415042523D332C312C224158
:107E9600504E222C2241697274656C696F742E6390
:107EA6006F6D220D0A0041542B53415042523D330F
:107EB6002C312C22434F4E54595045222C224750E8
:107EC6005253220D0A0041542B48545450504152EB
:107ED600413D22434944222C310D0A00566F6C74F1
:107EE6006167652069732E2E2E0D0A0D0A00415416
:107EF6002B48545450414354494F4E3D300D0A00CF
:107F060041542B434E4D493D312C312C302C310DF3
:107F16000A0041542B53415042523D302C310D0A38
:107F26000041542B53415042523D312C310D0A0031
:107F360041542B53415042523D322C310D0A0041DF
:107F4600542B434D47443D312C340D0A0041542BEC
:107F560048545450524541440D0A0041542B48544C
:107F660054505445524D0D0A0041542B4854545018
:107F7600494E49540D0A0041542B434D47533D2267
:107F86002573220D0041542B4342414E443D310D91
:107F96000A0041542B434D47463D310D0A004154DA
:107FA6002B434D47463D310D0041542B4353504E14
:107FB6003F0D0041544425733B0D0041542B474D62
:107FC600490D0041542B474D4D0D0041542B47534D
:107FD6004E0D00415445310D0A000D0A41540D0A5B
:107FE60000415445300D0020410D0A0020560D0A6F
:0A7FF60000252E3266004F4B0000FC
:020000040030CA
:0E00000000091F1EFF0081FF0FC00FE00F4020
:00000001FF
