:0400000007EF00F016
:0A0008005D8269ED10F023EF11F0A6
:10080000005761746572204C6576656C203D20252B
:0508100064000D000072
:100816002D50800B366E2D502D24386E2CAE16EFD3
:1008260004F018EF04F019EF04F038803850D8B40B
:100836001FEF04F021EF04F036EF04F03828D8A4B7
:1008460027EF04F029EF04F031EF04F0000E2A6ED2
:10085600000E2B6E000E2C6E000E2D6E2C8E000ED2
:100866002D6E3EEF04F0000E2A6E000E2B6E000E6B
:100876002C6E000E2D6E3150800B376E36503718A9
:10088600D8B448EF04F04AEF04F04BEF04F0368C8E
:1008960031503124376E30AE53EF04F055EF04F08B
:1008A60056EF04F037803750D8B45CEF04F05EEFB3
:1008B60004F073EF04F03728D8A464EF04F066EF71
:1008C60004F06EEF04F0000E2E6E000E2F6E000E7A
:1008D600306E000E316E308E000E316E7BEF04F0FE
:1008E600000E2E6E000E2F6E000E306E000E316E54
:1008F6003850375CD8B082EF04F084EF04F0ABEFE9
:1009060004F036AC89EF04F08BEF04F08DEF04F0C1
:10091600800E361A38C039F037C038F039C037F093
:100926002AC039F02EC02AF039C02EF02BC039F07B
:100936002FC02BF039C02FF02CC039F030C02CF06E
:1009460039C030F02DC039F031C02DF039C031F04A
:10095600000E396E385037C032F0336A325E000E00
:10096600335A33BEC0EF04F0335009E11A0E325C3D
:10097600D8A0C0EF04F0C2EF04F0F9EF04F02A505B
:100986002B102C102D10D8A4CBEF04F0CEEF04F0D2
:10099600010ECFEF04F0000E396E000E2A6E000E27
:1009A6002B6E000E2C6E000E2D6E37C038F002EF47
:1009B60005F039A0E1EF04F0E3EF04F0E9EF04F00D
:1009C600D89039300109396EEBEF04F0D8903932FE
:1009D6002AA0F0EF04F0F2EF04F0F3EF04F0398E02
:1009E6002D342D322C322B322A32382A3750385CAD
:1009F600D8A000EF05F002EF05F0DCEF04F036BCFE
:100A060007EF05F009EF05F049EF05F03850D8A4D7
:100A16000FEF05F011EF05F01BEF05F0000E2A6E43
:100A2600000E2B6E000E2C6E000E2D6E6AEF06F079
:100A36002E502A262F502B2230502C2231502D2278
:100A46002DA028EF05F02AEF05F0D6EF05F039A026
:100A56002FEF05F031EF05F037EF05F0D89039307C
:100A66000109396E39EF05F0D89039322AA03EEFE8
:100A760005F040EF05F041EF05F0398E2D342D32AB
:100A86002C322B322A32382AD6EF05F02E502A5C29
:100A96002F502B5830502C582D50800A326E315022
:100AA600800A3258D8B05AEF05F05CEF05F087EFB0
:100AB60005F02A502E5C326E2B502F58336E2C5078
:100AC6003058346E2D503158356EFF0E32242A6E52
:100AD600FF0E33202B6EFF0E34202C6EFF0E3520BA
:100AE6002D6E800E361A396C3950D8A47DEF05F07C
:100AF6007FEF05F08FEF05F0010E2A26000E2B2260
:100B06002C222D228FEF05F02E502A5E2F502B5AC5
:100B160030502C5A31502D5A2A502B102C102D1093
:100B2600D8A498EF05F09AEF05F0CFEF05F039500D
:100B3600D8A4A0EF05F0A2EF05F0CFEF05F0000E68
:100B46002A6E000E2B6E000E2C6E000E2D6E6AEFB6
:100B560006F0D8902A362B362C362D3639AEB6EF1F
:100B660005F0B8EF05F0B9EF05F02A8039A0BEEF21
:100B760005F0C0EF05F0C4EF05F0D8803936C6EFB2
:100B860005F0D89039363850D8B4CCEF05F0CEEF12
:100B960005F0CFEF05F038062CAED4EF05F0D6EF12
:100BA60005F0ACEF05F0000E376E39AEDDEF05F05F
:100BB600DFEF05F0F7EF05F039C032F07F0E3216A1
:100BC600D8B4E8EF05F0EAEF05F0EEEF05F0010E18
:100BD600376EF7EF05F02AA0F3EF05F0F5EF05F015
:100BE600F7EF05F0EAEF05F03750D8B4FDEF05F062
:100BF600FFEF05F02AEF06F0010E2A26000E2B2243
:100C06002C222D222DA00AEF06F00CEF06F02AEF7B
:100C160006F02AC032F02BC033F02CC034F02DC0C1
:100C260035F03534353234323332323232C02AF08E
:100C360033C02BF034C02CF035C02DF03828D8B492
:100C460027EF06F029EF06F02AEF06F0382A3828B3
:100C5600D8B430EF06F032EF06F03AEF06F038502F
:100C6600D8A438EF06F03AEF06F04CEF06F0000E87
:100C76002A6E000E2B6E000E2C6E000E2D6E385056
:100C8600D8A448EF06F04AEF06F04CEF06F0000E47
:100C9600366E38A051EF06F053EF06F056EF06F029
:100CA6002C8E57EF06F02C9ED89038302D6E36AE2F
:100CB6005FEF06F061EF06F062EF06F02D8E2AC0B8
:100CC6002AF02BC02BF02CC02CF02DC02DF01200DA
:100CD6001450800B216E14501424286E13AE76EF38
:100CE60006F078EF06F079EF06F028802850D8B4A1
:100CF6007FEF06F081EF06F096EF06F02828D8A4DD
:100D060087EF06F089EF06F091EF06F0000E116E00
:100D1600000E126E000E136E000E146E138E000E71
:100D2600146E9EEF06F0000E116E000E126E000E8F
:100D3600136E000E146E1850800B211A18501824CA
:100D4600296E17AEA9EF06F0ABEF06F0ACEF06F092
:100D560029802950D8B4B2EF06F0B4EF06F0C9EFF7
:100D660006F02928D8A4BAEF06F0BCEF06F0C4EFC7
:100D760006F0000E156E000E166E000E176E000EB3
:100D8600186E178E000E186ED1EF06F0000E156E57
:100D9600000E166E000E176E000E186E1550161009
:100DA60017101810D8A4DAEF06F0DCEF06F0F4EF0F
:100DB60006F0000E116E000E126E000E136E000E7F
:100DC600146E800E13127F0E14122150141211C0CD
:100DD60011F012C012F013C013F014C014F037EF64
:100DE60008F02850D8A4FAEF06F0FCEF06F006EF5C
:100DF60007F0000E116E000E126E000E136E000E3E
:100E0600146E37EF08F0295028C019F01A6A195ED7
:100E1600000E1A5A7F0E1924226E000E1A20236E17
:100E260011C01DF012C01EF013C01FF014C020F038
:100E3600000E116E000E126E000E136E000E146E72
:100E4600000E246E000E256E000E266E000E276E16
:100E5600000E296E67EF07F02950D8B435EF07F07A
:100E660037EF07F04EEF07F0D8901D361E361F36C7
:100E76002036D890113612361336143627AE46EF82
:100E860007F048EF07F049EF07F01180D8902436B5
:100E960025362636273615501D5C16501E58175017
:100EA6001F5818502058D8A05BEF07F05DEF07F0E9
:100EB60066EF07F0278C15501D5E16501E5A175008
:100EC6001F5A1850205A292A190E29646DEF07F067
:100ED6006FEF07F02FEF07F01D501E101F102010A8
:100EE600D8B478EF07F07AEF07F092EF07F0248096
:100EF60092EF07F0D890113612361336143627AE15
:100F060087EF07F089EF07F08AEF07F01180D89096
:100F160024362536263627362206D8A0230613AED3
:100F260097EF07F099EF07F07DEF07F0000E296EB7
:100F360027AEA0EF07F0A2EF07F0C6EF07F0FF0E0F
:100F46002414196EFF0E25141A6EFF0E26141B6E3E
:100F56007F0E27141C6E19501A101B101C10D8B4C3
:100F6600B7EF07F0B9EF07F0BDEF07F0010E296EF6
:100F7600C6EF07F011A0C2EF07F0C4EF07F0C6EF07
:100F860007F0B9EF07F02950D8B4CCEF07F0CEEF51
:100F960007F0F2EF07F0010E1126000E12221322BF
:100FA600142214A0D9EF07F0DBEF07F0F2EF07F0F9
:100FB60011C019F012C01AF013C01BF014C01CF0B7
:100FC6001C341C321B321A32193219C011F01AC0E5
:100FD60012F01BC013F01CC014F0224A232A23BEB1
:100FE600FDEF07F0235008E12228D8A0FDEF07F017
:100FF600FFEF07F00AEF08F0000E236E2268000EDE
:10100600116E000E126E000E136E000E146E23BECD
:1010160017EF08F0235006E12204D8B015EF08F0C8
:1010260017EF08F025EF08F0000E236E000E226E73
:10103600000E116E000E126E000E136E000E146E70
:10104600000E216E22C028F028A02CEF08F02EEF0B
:1010560008F031EF08F0138E32EF08F0139ED890A7
:101066002830146EE8EF06F0120020C038F021C0D8
:1010760039F022C03AF023C03BF024C03CF025C032
:101086003DF026C03EF027C03FF03FBE4DEF08F0D2
:1010960050EF08F0010E51EF08F0000E366E376A79
:1010A60036503710D8B45AEF08F05CEF08F06CEF02
:1010B60008F03F1E3E1E3D1E3C1E3B1E3A1E391EBC
:1010C600386C000E39223A223B223C223D223E2237
:1010D6003F22000181BF72EF08F074EF08F075EF50
:1010E60008F05B9281BF82EF08F0815106E180052E
:1010F600D8B080EF08F082EF08F088EF08F0000E15
:10110600336E010E326E8CEF08F080C032F081C073
:1011160033F07EC034F07FC035F036503710D8A497
:1011260097EF08F099EF08F0A0EF08F05BA49EEFA8
:1011360008F0A0EF08F0A3EF08F03406D8A03506B3
:10114600000E416E1F0E406E000EAD6F27EF09F0C8
:101156004006D8A041068E0E4024D96E000E4120CE
:10116600DA6E38C003F039C004F03AC005F03BC06F
:1011760006F03CC007F03DC008F03EC009F03FC095
:101186000AF00A0E0B6E000E0C6E000E0D6E000EAF
:101196000E6E000E0F6E000E106E000E116E000E1B
:1011A600126EDAEC0CF003C028F004C029F005C07A
:1011B6002AF006C02BF007C02CF008C02DF009C09D
:1011C6002EF00AC02FF028C015F02AC016F003EC46
:1011D60011F01550300FDF6E3206D8A033063406F4
:1011E600D8A0350638C003F039C004F03AC005F07F
:1011F6003BC006F03CC007F03DC008F03EC009F019
:101206003FC00AF00A0E0B6E000E0C6E000E0D6E3D
:10121600000E0E6E000E0F6E000E106E000E116E9A
:10122600000E126E5BEC0BF003C038F004C039F010
:1012360005C03AF006C03BF007C03CF008C03DF0E0
:1012460009C03EF00AC03FF041BE32EF09F04150FE
:1012560008E14004D8A032EF09F034EF09F064EF5A
:1012660009F0385039103A103B103C103D103E1032
:101276003F10D8A441EF09F043EF09F0ABEF08F0B7
:1012860033BE50EF09F0335006E13204D8B04EEFCA
:1012960009F050EF09F0ABEF08F035BE5BEF09F04F
:1012A600355008E13404D8A05BEF09F05DEF09F092
:1012B60064EF09F05BB262EF09F064EF09F0ABEF9F
:1012C60008F036503710D8A46BEF09F06DEF09F02F
:1012D60074EF09F05BA472EF09F074EF09F092EF76
:1012E60009F04006D8A0410636503710D8A47EEF44
:1012F60009F080EF09F086EF09F0000E316E2B0E33
:10130600306E8AEF09F0000E316E2D0E306E8E0EA5
:101316004024D96E000E4120DA6E30C0DFFF1EC0B9
:1013260013F01FC014F08E0E4024156E000E4120DF
:10133600166E34C017F035C018F0FAEC0EF013C074
:101346001EF014C01FF012000B6E0B50D8B4AEEF97
:1013560009F0B0EF09F0D2EF09F006BEB7EF09F0D9
:10136600B5EF09F0D2EF09F003C007F004C008F0AA
:1013760005C009F006C00AF0071E081E091E0A1E4F
:10138600072A000E082209220A2207C00DF008C00B
:101396000EF009C00FF00AC010F0DAEF09F003C032
:1013A6000DF004C00EF005C00FF006C010F003509B
:1013B600041005100610D8A4E3EF09F0E5EF09F0D4
:1013C600EFEF09F0000E036E000E046E000E056EC0
:1013D600000E066E80EF0AF0960E0C6EF9EF09F01D
:1013E6000C2AD89010320F320E320D32000E0D1428
:1013F600076E000E0E14086E000E0F14096EFE0E18
:1014060010140A6E0750081009100A10D8A40EEF1F
:101416000AF010EF0AF0F3EF09F01EEF0AF00C2ABB
:10142600010E0D26000E0E220F221022D890103229
:101436000F320E320D32000E0D14076E000E0E1412
:10144600086E000E0F14096EFF0E10140A6E075078
:10145600081009100A10D8A433EF0AF035EF0AF085
:1014660012EF0AF03DEF0AF00C06D8900D360E3654
:101476000F3610360FBE42EF0AF044EF0AF04CEF7B
:101486000AF0020E0C604AEF0AF04CEF0AF037EF52
:101496000AF00CB051EF0AF053EF0AF054EF0AF0DD
:1014A6000F9ED8900C320CC007F0086A096A0A6AC7
:1014B60007C00AF0096A086A076A07500D12085041
:1014C6000E1209500F120A5010120B50D8B46EEFBC
:1014D6000AF070EF0AF078EF0AF006BE77EF0AF02E
:1014E60075EF0AF078EF0AF0108E0DC003F00EC00B
:1014F60004F00FC005F010C006F0120044C0D9FF7A
:1015060045C0DAFFDECFF6FFDDCFF7FF0800F55066
:10151600250AD8A491EF0AF093EF0AF03FEF0BF0FB
:1015260044C0D9FF45C0DAFFDE2A000EDD22000ED8
:1015360000017F6F000E7E6F7EC05BF07FC05CF0A7
:101546008069816944C0D9FF45C0DAFFDECFF6FF66
:10155600DDCFF7FF0800F550640AD8B4B5EF0AF0FE
:10156600B7EF0AF0C9EF0AF044C0D9FF45C0DAFF69
:10157600DECFF6FFDDCFF7FF0800F550690AD8A4E5
:10158600C7EF0AF0C9EF0AF009EF0BF044C0D9FF24
:1015960045C0DAFFDE2A000EDD2246C0D9FF47C06D
:1015A600DAFFDFCF48F0020EDE26DFCF49F0000E6D
:1015B600DD2248C0D9FF49C0DAFFDECF4AF0DDCFD1
:1015C6004BF0000E4BBEFF0E4C6E4D6E4E6E4F6EC8
:1015D600506E516E42C01EF043C01FF04AC020F04C
:1015E6004BC021F04CC022F04DC023F04EC024F079
:1015F6004FC025F050C026F051C027F038EC08F057
:101606001EC042F01FC043F05AEF0BF044C0D9FF92
:1016160045C0DAFFDECFF6FFDDCFF7FF0800F55055
:10162600250AD8A419EF0BF01BEF0BF032EF0BF0E5
:1016360044C0D9FF45C0DAFFDE2A000EDD22000EC7
:10164600046E250E036E42C005F043C006F095EC0D
:101656000EF0000E436E010E426E5AEF0BF044C0C0
:10166600D9FF45C0DAFFDE2A000EDD22000E436EEA
:10167600000E426E5AEF0BF044C0D9FF45C0DAFFA8
:10168600DECFF6FFDDCFF7FF0800F550036E046AE4
:1016960042C005F043C006F095EC0EF044C0D9FFF9
:1016A60045C0DAFFDE2A000EDD222CEF0BF0120019
:1016B600000E146E12BE64EF0BF062EF0BF076EFC5
:1016C6000BF0121E111E101E0F1E0E1E0D1E0C1EDE
:1016D6000B6C000E0C220D220E220F22102211225C
:1016E6001222010E146E0ABE7DEF0BF07BEF0BF09B
:1016F6008FEF0BF00A1E091E081E071E061E051E8A
:10170600041E036C000E042205220622072208226C
:1017160009220A22010E141A20EE15F0070EDE6ABF
:10172600E806FDE20B500C100D100E100F101010F5
:1017360011101210D8B4A2EF0BF0A4EF0BF0F6EFD5
:101746000BF0010E136EB2EF0BF0D8900B360C3681
:101756000D360E360F36103611361236132A12AEE5
:10176600B7EF0BF0B9EF0BF0A8EF0BF0D8901536EA
:1017760016361736183619361A361B361C360B50DF
:10178600035C0C5004580D5005580E5006580F5067
:101796000758105008581150095812500A58D8A026
:1017A600D7EF0BF0D9EF0BF0EAEF0BF00B50035E1F
:1017B6000C50045A0D50055A0E50065A0F50075A2F
:1017C6001050085A1150095A12500A5A1580D890CA
:1017D6001232113210320F320E320D320C320B32FF
:1017E600132EB9EF0BF01450D8B4FCEF0BF0FEEF4C
:1017F6000BF00EEF0CF01C1E1B1E1A1E191E181ED7
:10180600171E161E156C000E1622172218221922F4
:101816001A221B221C2215C003F016C004F017C0A2
:1018260005F018C006F019C007F01AC008F01BC072
:1018360009F01CC00AF0120007C011F008C012F02F
:101846000B500C10D8A42AEF0CF02CEF0CF02EEF56
:101856000CF0D9EF0CF011C0D9FF12C0DAFF09C0A5
:10186600DFFF0B5011240D6E0C5012200E6EFF0E72
:101876000D24D96EFF0E0E20DA6E09C0DFFF0C5064
:1018860007E1030E0B5CD8B04BEF0CF04DEF0CF0FC
:101896004FEF0CF0D9EF0CF020EE01F01150D926E5
:1018A6001250DA2209C0DFFF20EE02F01150D926CD
:1018B6001250DA2209C0DFFF0B5011240D6E0C50B6
:1018C60012200E6EFE0E0D24D96EFF0E0E20DA6E5D
:1018D60009C0DFFF0B5011240D6E0C5012200E6E46
:1018E600FD0E0D24D96EFF0E0E20DA6E09C0DFFF45
:1018F6000C5007E1070E0B5CD8B084EF0CF086EFB6
:101906000CF088EF0CF0D9EF0CF020EE03F011503C
:10191600D9261250DA2209C0DFFF0B5011240D6EB2
:101926000C5012200E6EFC0E0D24D96EFF0E0E20EA
:10193600DA6E09C0DFFF0C5007E1090E0B5CD8B068
:10194600A7EF0CF0A9EF0CF0ABEF0CF0D9EF0CF011
:1019560011C00DF012C00EF00D1E0E1E0D4A0E2AFD
:10196600030E0D140F6E106A0F501126105012221E
:101976000F500B5E10500C5AFC0E0B16FF0E0C1679
:10198600D0EF0CF011C0D9FF12C0DAFF09C0DFFF9B
:101996000B06D8A00C06114A122A0B500C10D8A41C
:1019A600D7EF0CF0D9EF0CF0C5EF0CF01200000EDB
:1019B600146E0ABEE3EF0CF0E1EF0CF0F5EF0CF05D
:1019C6000A1E091E081E071E061E051E041E036C9F
:1019D600000E0422052206220722082209220A22D4
:1019E600010E146E12BEFCEF0CF0FAEF0CF00CEFC9
:1019F6000DF0121E111E101E0F1E0E1E0D1E0C1EA9
:101A06000B6C000E0C220D220E220F221022112228
:101A160012220B500C100D100E100F10101011107A
:101A26001210D8B419EF0DF01BEF0DF063EF0DF0A7
:101A3600010E136E29EF0DF0D8900B360C360D36CD
:101A46000E360F36103611361236132A12AE2EEF18
:101A56000DF030EF0DF01FEF0DF00B50035C0C5046
:101A660004580D5005580E5006580F500758105080
:101A760008581150095812500A58D8A045EF0DF0D1
:101A860047EF0DF057EF0DF00B50035E0C50045A64
:101A96000D50055A0E50065A0F50075A1050085A44
:101AA6001150095A12500A5AD89012321132103275
:101AB6000F320E320D320C320B32132E30EF0DF088
:101AC6001450D8B469EF0DF06BEF0DF07BEF0DF00D
:101AD6000A1E091E081E071E061E051E041E036C8E
:101AE600000E0422052206220722082209220A22C3
:101AF60003C003F004C004F005C005F006C006F0FC
:101B060007C007F008C008F009C009F00AC00AF0CB
:101B16001200000E0001836F000E826FC00EAE6FC2
:101B2600000EAF6F120EB06F080EB16F93EC10F08F
:101B3600C00E046E000E056E40EC11F0000E046E31
:101B4600C80E036EBCEC10F0000E00018225D96EA3
:101B5600010E8321DA6E3E0EDE18D8A4B5EF0DF025
:101B6600B7EF0DF0DAEF0DF0000E836F000E826F07
:101B7600000E076E010E086E000E0A6E000E096E4C
:101B8600000E036E010E046E5DEC11F003C00BF047
:101B960004C00CF01FEC0CF0BEC004F0BFC005F092
:101BA60040EC11F01A0E78EC11F0DEEF0DF0824BDE
:101BB600832BA7EF0DF0010E046E2C0E036EBCEC0A
:101BC60010F0000E0001836F000E826F000E076E8C
:101BD600010E086E000E0A6E000E096E000E036EF0
:101BE600010E046E5DEC11F003C00BF004C00CF0A6
:101BF6001FEC0CF0C00E076E000E086E000E0A6E8B
:101C0600000E096EC00E036E000E046E5DEC11F040
:101C160003C00BF004C00CF01FEC0CF012000534EE
:101C260006340C6E0C50D8A41BEF0EF01DEF0EF010
:101C360027EF0EF0000E036E000E046E000E056E0A
:101C4600000E066E94EF0EF003C007F004C008F015
:101C560005C009F006C00AF0200E37EF0EF0D89046
:101C66000A32093208320732E82E32EF0EF00750F8
:101C76000B6E058EFF0E0316FF0E0416FF0E0516DD
:101C8600000E0616960E0C5E0CBE4EEF0EF04CEFD6
:101C96000EF064EF0EF00C50800A970FD8B056EF96
:101CA6000EF058EF0EF05AEF0EF01DEF0EF0D89032
:101CB60006320532043203320C3E5AEF0EF07CEF48
:101CC6000EF01F0E0C646AEF0EF06CEF0EF074EF60
:101CD6000EF01DEF0EF0D8900336043605360636A4
:101CE6000C060C50D8A47AEF0EF07CEF0EF06EEFD7
:101CF6000EF00B50D8B482EF0EF084EF0EF08CEF9E
:101D06000EF0061E051E041E036C000E042205229C
:101D1600062203C003F004C004F005C005F006C0A7
:101D260006F0120005500610D8B49CEF0EF09EEF98
:101D36000EF0A7EF0EF005500610D8A4A5EF0EF092
:101D4600A7EF0EF0ACEF0EF003508DEC11F0F9EFAB
:101D56000EF020EE04F00550D9260650DA22DE50A9
:101D6600DE10D8B4B9EF0EF0BBEF0EF0D6EF0EF0E2
:101D760020EE04F00550D9260650DA2210EE02F0C5
:101D86000550E1260650E222DE50E65CE650800A67
:101D96000B6EDE50800A0B58D8B0D4EF0EF0D6EF9B
:101DA6000EF0F9EF0EF020EE02F00550D92606509F
:101DB600DA22DECF07F0DDCF08F005C0D9FF06C076
:101DC600DAFFDECF09F0DDCF0AF007500924D96E1D
:101DD60008500A20DA6E03C0DFFF20EE02F005503D
:101DE600D9260650DA22DE2A000EDD2212005BA07A
:101DF600FFEF0EF001EF0FF00BEF0FF015C00CF038
:101E060016C00DF013C00EF014C00FF0E1EC10F088
:101E160018BE10EF0FF012EF0FF018EF0FF017C00B
:101E26001CF018C01DF01CEF0FF0000E1D6E000E0A
:101E36001C6E000E1B6E000E1A6E2EEF0FF0000EBB
:101E4600046E200E036E13C005F014C006F095EC68
:101E56000EF01A4A1B2A1C501A5C1B50800A196E77
:101E66001D50800A1958D8A03BEF0FF03DEF0FF038
:101E760022EF0FF05BB042EF0FF044EF0FF04EEFA2
:101E86000FF015C00CF016C00DF013C00EF014C004
:101E96000FF0E1EC10F015C003F016C004F05DEC95
:101EA60011F01C500324136E1D500420146E1200F2
:101EB60003C005F0D8900536D89005363C0E0516B9
:101EC600C250C30B0510C26EC2B26CEF0FF070EFBA
:101ED6000FF0056A052A71EF0FF0056A010E066E0E
:101EE600052A78EF0FF0D8900636052E76EF0FF01C
:101EF600C2B080EF0FF084EF0FF0076A072A85EF74
:101F06000FF0076A010E086E072A8CEF0FF0D890C3
:101F16000836072E8AEF0FF008500610C212C2B21A
:101F260097EF0FF099EF0FF092EF0FF0C350C4CF79
:101F360005F0066A05C006F0056A05100001F76F90
:101F46000650F86FF7C003F0F8C004F01200949C36
:101F5600948E3AC003F03BC004F03CC005F03DC08F
:101F660006F0010EA7EC09F003C015F004C016F048
:101F760005C017F006C018F0000E116E240E126E82
:101F8600F40E136E470E146E6BEC06F011C02AF0B9
:101F960012C02BF013C02CF014C02DF0000E2E6EC4
:101FA600000E2F6E800E306EBF0E316E0BEC04F0FD
:101FB6002AC03EF02BC03FF02CC040F02DC041F0AF
:101FC6003EC003F03FC004F040C005F041C006F03B
:101FD60012EC0EF00350AF6E200EAC6E900EAB6E90
:101FE6001200000E936E000E946E000E956E000E9B
:101FF600966E8080800E3A6E250E3B6E000E3C6E0D
:10200600000E3D6EAAEC0FF0720ED36E83EC11F04B
:10201600000E046E000E036E5BEC0FF003C0F7F0CB
:1020260004C0F8F0E30E0001AE6F000EAF6F010EB4
:10203600B06F080EB16FF7C0B2F0F8C0B3F093EC12
:1020460010F0E30E0001BE6F000EBF6F8CEC0DF0BA
:10205600819081928194010E046EF40E036EBCECA5
:1020660010F00BEF10F007EF00F054C058F055C019
:1020760059F0000E00017D6F000E7C6F56EF10F0D8
:1020860052C042F053C043F0580E446E000E456EE7
:1020960056C046F057C047F081EC0AF042500001A6
:1020A6007C2743507D2358C0F6FF59C0F7FF080030
:1020B600F5500009D8A462EF10F064EF10F043EF7A
:1020C60010F07CC052F07DC053F012000600D9CF4C
:1020D60001F0DACF02F09EAA73EF10F075EF10F060
:1020E6008DEF10F0000E00018225D96E010E8321BE
:1020F600DA6EAECFDFFF824B832BABA285EF10F0FB
:1021060087EF10F08AEF10F0AB9800F0AB88010E65
:1021160000018C6F02C0DAFF01C0D9FF5D92110089
:10212600B20E0001B66F000EB76FAEC0B8F0AFC00A
:10213600B9F0000EBB6F000EBA6F000EBD6F000E39
:10214600BC6FB80E526E000E536EB0C054F0B1C0E4
:1021560055F0B60E566E000E576E38EC10F00001B4
:10216600BA51AE25D96EBB51AF21DA6E000EDF6EC5
:102176001200000E066E000E056ED5EF10F0000E72
:10218600086E000E076E074A082A085009E1510E2C
:10219600075CD8A0D1EF10F0D3EF10F0C6EF10F027
:1021A600054A062A0550035C06500458D8B0DEEFEF
:1021B60010F0E0EF10F0C2EF10F01200000E126EF9
:1021C600000E116EF2EF10F010C003F0046A0EC09C
:1021D60005F00FC006F095EC0EF0114A122A1150C8
:1021E6000C24D96E12500D20DA6EDF50106E10508E
:1021F600D8A400EF11F002EF11F0E7EF10F0120093
:1022060016BE10EF11F0165006E11504D8B00EEF09
:1022160011F010EF11F01EEF11F015C017F016C0F7
:1022260018F0171E181E174A182A17C015F018C0DE
:1022360016F022EF11F015C015F016C016F01200B8
:1022460002EE00F0C80EEE6AE806FDE101EE00F0CF
:10225600A00EEE6AE806FDE100EE60F04E0EEE6AB4
:10226600E806FDE15C6A5B6A5D905D92000EF86EC1
:10227600080EF76E0001F4EF0FF0000E066E4EEF3B
:1022860011F006500424D96E000E0520DA6EDF50D8
:1022960078EC11F0062A06500424D96E000E0520AB
:1022A600DA6EDF50D8A45AEF11F05CEF11F044EF6C
:1022B60011F0120003C005F004C006F065EF11F03E
:1022C600034A042A03C0D9FF04C0DAFFDF50D8A4AA
:1022D6006FEF11F071EF11F063EF11F00550035C31
:1022E600036E06500458046E1200036E9EA87EEF1D
:1022F60011F080EF11F079EF11F003C0ADFF12007D
:1023060092680E0EC16E920EC06E000EC46E000E66
:06231600C36E120012006C
:020000040020DA
:08000000FFFFFFFFFFFFFFFF00
:020000040030CA
:0E00000000091F1EFF0081FF0FC00FE00F4020
:00000001FF
